:100000000C942D040C9455040C9455040C94550434
:100010000C9455040C9455040C9455040C945504FC
:100020000C9455040C9455040C9455040C945504EC
:100030000C9455040C9455040C9455040C945504DC
:100040000C9457040C9455040C94A20F0C947C0F40
:100050000C9455040C9455040C9455040C945504BC
:100060000C949E140C945504020004040405030629
:10007000060C1C020018FA170000000000002743BD
:10008000198C0DC2530C8D0A4223865939FF67C65D
:10009000460C22A106192100B00C656CA731E204C0
:1000A0008913230000000004FFFF00000C0005047A
:1000B0000506030506152B02FF2AF629FF0000009E
:1000C0000002222D09B0B0A7C13F50002E0BA57031
:1000D0004CC303248C0000302B5535CCCF612BB59D
:1000E000F3CA0362A49084392698C4D25AFAFFFF57
:1000F0005B2BB164823946A490C603A2BCD3D26202
:10010000E70031164B357C4DAD187206120F7C405E
:1001100004348AA9FFFFFF0F32385535CC91612B8B
:10012000B5F3CA0362248184392698C4D25ADA5AB4
:100130008925134832422CE38C3BCE72C759EE38E6
:10014000E38EB3DC71963BCE72C71977DC03FF01F7
:10015000333355F5CBC1FFDC71C61D67B9E32C778E
:100160009CF58C434DADA55843EF3C03CD33B07E99
:10017000CF0CA14C28C884539078608C07447988B0
:100180002D740034335535CC8F79E615589EF5CA59
:10019000B35E81E559AFC0F2AC576079D62BA41895
:1001A000438A31A498528A29A514534A31A5940749
:1001B000FE5B05D65F0135365535CCC1FF4081F574
:1001C0002F24F380200F8CF100110F1081CA09E752
:1001D0009860D2526B15581F544BAD955832C11CC4
:1001E000235248E30151DE6969B173003640553549
:1001F000CCCF612BB5F3CA0362A49084392698C48E
:10020000D25A0AD6179279409007C6788088078814
:1002100040E584734C3089A5B5F4B75662C90473C0
:100220008C48218D074479A7A5C5CE01372D5535BA
:10023000CCC1FF40515B32A124134A32A124E3CC4C
:10024000B339F32C779C799633CFE6CCB339F36C82
:10025000CE3CCB1D679EE58C0238475535CCCF612F
:100260002BB5F3CA0362A49084392698C4D25A7A73
:100270006B25964C30C788538E78808C074479E67E
:100280009507C448010D738C28A90493D6D2B7569C
:1002900062C904738C48218D074479A7A5C5CE0196
:1002A00039435535CCCF612BB5F3CA0362A4908492
:1002B000392698C4D25AFA5B2BB1648239279C82C2
:1002C000C403443C40C603833C200C1205D641B510
:1002D000D45A892513CC312285341E10E59D9616FB
:1002E0003B070000000004FFFF0000600003030460
:1002F00004030505080F00FD0AFD0A000179032625
:1003000004D52005008419210CA48639924345A404
:100310002C9200220A46BD19222649280223129750
:1003200084394A12C945492292482E4A12090024AA
:1003300012E77479525945461C97A5439AA428158B
:1003400001250B878419C299506F43012613A78496
:1003500059338948225BA14C44129144249A0827BE
:100360000843BD392A14002809A486591225BD293D
:10037000290AA486193225BD28012A0D589439224C
:1003800019E910A28924002B0A569559429149284F
:10039000022C08437E392A14002D0617A419072EB3
:1003A00006228719042F0A8784D951A15EC3003021
:1003B00012A88459349144C822A1488844894846E7
:1003C00002310AA68559B211519F0C320DA784390A
:1003D000159954A857D94100330FA784391599545A
:1003E000892C95D2241500340EA78499C21949A2EC
:1003F00024394A1509350EA7841907A9AA592AA52F
:10040000492A00360EA7845933A1546A9171935436
:1004100000370CA7841907995451AB3600380EA742
:10042000843915199BA422E326A900390DA7843924
:1004300015199BC4AA5144023A07728F1964023BF2
:100440000A838639EA300905003C08968599325DB1
:10045000753D08469D1976A8013E0996851952DD1D
:1004600074043F0DA7843915194DA8AA0E550240F2
:100470000C97843915198B9789B802410DA7847997
:10048000D199448D76A071134213A7841926159132
:10049000442429A988242289E81001430EA78459FD
:1004A000241171AA634424A2004414A78419358935
:1004B000484524114944129144245129014513A768
:1004C00084191791441691C46892985416111D040A
:1004D0004611A784191791441691C46892985491B3
:1004E000064710A78459241171AA62A34944A2495E
:1004F00000480BA78419326E071A6F024909A486B7
:100500001914917E214A0FA7847944A92E22894883
:10051000221291004B12A78419238948229228D1D4
:100520006812918AA8244C0CA7841944A9BE45449A
:1005300007014D0DA88419C2D2E14542E451004E95
:100540000DA78419B292E54031D5B8094F0BA784A5
:100550003915197F935400500FA78419261591441B
:1005600024294935D200510DC774391519BF445893
:10057000AAD2015212A7841926159144242949446C
:100580002A2289A8245310A7843915194D221E8BBD
:100590006934490500540EA88419878964248A891E
:1005A000F54A02550AA7841932FE4D5201560DA88C
:1005B0008419427E948864541900570FA884194204
:1005C000BE482892C344A405005811A8841942A229
:1005D0004424A38AA53491444814590EA88419428E
:1005E00046894846156B25015A0DA8841987E150A4
:1005F000AAD7E161005B08A4861926FD445C0A972E
:10060000841961E95EC5015D08A4861924FD645E54
:100610000A47C479D199444D005F071874198700BF
:10062000600833CE19129100610F77843964514507
:1006300024114944A289006212A7841953559A448F
:10064000A42292882422490500630B778439151966
:10065000559BA4026412A78479533592444922928F
:10066000882422D14400650C77843915D981AA26C3
:10067000A900660EA684592389524446136A2301B1
:100680006714A76C39139244241149441291A82A83
:10069000118948006811A78419532DA28992442416
:1006A0001149442501690AA4863922E9482F046AC0
:1006B0000ED66D99EAA0A11E49240905006B0FA76B
:1006C0008419534D12251A4D221295046C09A486E3
:1006D0001923FD85006D1178841923C96122A14871
:1006E00028128A84A2006E1177841992918A482276
:1006F000928824228948006F0B77843915196F92EC
:100700000A007013A76C1992918A482292882422B9
:1007100049492AA4017111A76C3913924424114943
:10072000441291A8AA48720D77841992D1444922A3
:1007300055A401730E7784391599443C96C8241545
:1007400000740DA7847951359B5417D90400751195
:100750007784192289482292882422894834117684
:100760000C788419428E12918C2A03770E788419A2
:10077000422E128AE430114900780F788419428998
:10078000484695D24412A100790DA76C1932BE4992
:10079000AC424909007A0B778419079150B783005E
:1007A0007B0CA6857923A1D254A875007C09A28769
:1007B0001987D061007D0CA6851953A1EA48A86964
:1007C000067E0927C43913CA04007F0B778C79D1C0
:1007D00099448DED2000000004FFFF0000000000A0
:1007E00000240027002A0000000000250028002B1C
:1007F0000000000000230026002900040404040473
:1008000004040402020202020203030303030301BD
:100810000204081020408001020408102001020494
:100820000810200000000800020100000304070077
:1008300000000000000000005EBCE2613FDD83C2FA
:100840009C7E20A3FD1F41009D23BE46DB65F88CE6
:1008500011AF32CA57E97400882411241FBECFEFAC
:10086000D8E0DEBFCDBF27E0AEEDB2E001C01D9203
:10087000A432B207E1F712E0A0E0B1E0EEECFBE554
:1008800002C005900D92AE3DB107D9F714E0CDE25C
:10089000D4E004C02197FE010E94C22ACC32D107C5
:1008A000C9F70E94411D0C94E52D0C9400001F9285
:1008B0000F920FB60F9211242F933F938F939F9314
:1008C000AF93BF938091650690916606A0916706ED
:1008D000B09168063091EF0223E0230F2D3720F40A
:1008E0000196A11DB11D05C026E8230F0296A11D8A
:1008F000B11D2093EF028093650690936606A09346
:100900006706B09368068091690690916A06A09187
:100910006B06B0916C060196A11DB11D809369060E
:1009200090936A06A0936B06B0936C06BF91AF914B
:100930009F918F913F912F910F900FBE0F901F901D
:100940001895213039F020F0223031F4861B0895BB
:10095000860F0895841B0895840F0895213039F07F
:1009600020F0223031F4841B0895840F0895860FFF
:100970000895861B0895DC0118964C911897ED9107
:10098000FC911197249130E0042E02C035952795F3
:100990000A94E2F7842F860F883010F4E22F0DC0FE
:1009A00031961196FC93EE93E49198E0941B01C06C
:1009B000EE0F9A95EAF7E22B885018968C9381E017
:1009C00090E001C0880F6A95EAF781508E23089560
:1009D0005F926F927F928F929F92AF92BF92CF92CF
:1009E000DF92EF92FF920F931F93CF93DF935C01FF
:1009F000F62E642EEC01C05BDF4F1C81DD804C01C4
:100A00008AE7880E911CEE80E11ACF2CEF1408F4CF
:100A1000CE2C5B800C85202F4D2D612F8A810E946A
:100A2000A104782E202F4D2D612F852D0E94AE041C
:100A3000482F662011F08A8504C08985811108C07D
:100A40008B85F40180832C2D672DC5010E946510D4
:100A5000FE1420F0FE18D39410E0D5CF1F0D1C8398
:100A6000DD82DF91CF911F910F91FF90EF90DF908A
:100A7000CF90BF90AF909F908F907F906F905F903E
:100A80000895CF93DF93EC01862F683109F45FC09E
:100A900060F4B901843181F0873109F0CEC050E0B3
:100AA0008DEF92E00E945F1250C0693109F472C06C
:100AB000603209F44AC0C1C08C859D85AE85BF8572
:100AC000892B8A2B8B2B71F4E881F981A585B0E005
:100AD00020EA36E841E050E00E94F3296C877D87E8
:100AE0008E879F8710928F0610928E061092910625
:100AF000109290061092970681E0809399061092CA
:100B0000980661E082E10E94F51561E083E10E94B0
:100B1000F5158091B9008E7F8093B9008091B9005E
:100B20008D7F8093B90088E48093B80085E480933A
:100B3000BC0082E392E1909393068093920683E354
:100B400092E1909395068093940681E077C02C857E
:100B50003D854E855F8560E074E284EF90E00E9401
:100B6000642ADA01C9014097A109B109B695A79590
:100B7000979587958093B8008E8990E09595879595
:100B800091E090938D068093FC0210929106109252
:100B90009006DBCF20919006213208F047C080916B
:100BA00097068111FCCF8091FC0292E0909397060A
:100BB00091E0909399069FEF909396061092BB0652
:100BC0002093BA06EDE6F6E0AAE9B6E090E0291730
:100BD00021F031913D939F5FFACF1092BC06909126
:100BE000BC06880F892B8093BC06809198068130C3
:100BF00061F4109298068091BC068093BB008091AE
:100C0000BC0083FDF8CF85EC01C085EE8093BC006D
:100C1000809197068230E1F3809196068F3F31F004
:100C200080919606803211F080919606109291067E
:100C30001092900610928D0688CF80E0DF91CF91C0
:100C400008950F931F93CF93DF93EC01862F642FAA
:100C50008C3270F48A3208F05DC0883289F08932B3
:100C600009F042C070E080E090E00E94601652C03F
:100C70008D32D1F0C8F194EB980F923020F134C04E
:100C80008E01015E1F4FD0E0F80181918F018F3FEF
:100C900039F0D03110F461E001C062E00E94241606
:100CA000DF5FD63189F736C0433018F082E090E03C
:100CB00002C085E090E0880F991F880F991F059763
:100CC0000197F1F727C08F73C80FD11D411107C0DD
:100CD00061E08F8D0E94241660E08F8D11C062E06C
:100CE0008F8D0E94241616C08034B0F0982F9F7309
:100CF000FE01E90FF11D878D8F3F61F0903118F4EF
:100D00000E94F51507C00E94CC1521E0892B09F43B
:100D100020E02A8F81E001C080E0DF91CF911F9118
:100D20000F910895FC01E60FF11D849190E0982F3A
:100D300088273196E4918E0F911D08956F927F92CE
:100D40008F929F92AF92BF92CF92DF92EF92FF92DB
:100D50000F931F93CF93DF93EC01062F142F79018C
:100D6000FC01E45AFF4F80818130C9F070F082307D
:100D700001F1833039F5FE01E25BFF4F0190F08114
:100D8000E02DCE010995080F1DC0FE01E25BFF4F6B
:100D90000190F081E02DCE010995180F13C0FE01DE
:100DA000E25BFF4F0190F081E02DCE010995081B19
:100DB00009C0FE01E25BFF4F0190F081E02DCE0102
:100DC0000995181BFE01EE5AFF4F008331961083E0
:100DD00037978081918147962FEFE216F10409F051
:100DE00040F5E1E6EE16F10420F0FE01E059FF4F78
:100DF00007C0F1E4EF16F10438F0FE01E259FF4FAD
:100E000020813181820F931F9C012F5F3F4FF90199
:100E10004491442309F40EC1FC01449150E0E416CE
:100E2000F50611F4029634C0F9012491820F911D48
:100E3000EBCFFE01EE58FF4FC080D180C80ED91E07
:100E4000860160E0C6010E949206080F191F62E049
:100E5000C6010E949206F4E0CF0ED11C8E159F05AC
:100E600080F3F801849190E0982F88273196E491DF
:100E70008E2B009709F4DEC0E816F90619F4C801B4
:100E8000039606C0F8013296E4910E0F111DE9CFCA
:100E9000009709F4CFC07E01F0E5EF0EF11CF701D9
:100EA00091838083108671966081C7010E94BB0484
:100EB000F701868372966081C7010E94BB04D82E19
:100EC000F70187835E01FAE7AF0EB11CF50190814F
:100ED000F701928781E0911180E0F7018387FE019D
:100EE000ED59FF4F1081612FC7010E94BB049FEF96
:100EF000910F01E010E0980101C0220F9A95EAF7E6
:100F0000782E721AFE01EC59FF4FC0806C2DC7017C
:100F10000E94BB04CA94480101C0880CCA94EAF735
:100F2000682E6D0CFE01EB59FF4FC0806C2DC70180
:100F30000E94BB04CA9401C0000FCA94EAF7C82EED
:100F4000C01AF701068110160CF075C0948486183B
:100F5000292D482D672D82810E94A104182FF701A9
:100F60008283292D482D672D83810E94AE04F701CD
:100F70008383F1E09F16B1F09F1678F022E092167D
:100F8000B9F093E099121FC0212F2D0D982F901BBF
:100F900001E0080F81E0890F18C0202F210F082FD2
:100FA0000D0D13C09D1821E0210F080F190D0DC064
:100FB00091E0392F301B21E0210F9D1901E0080F2E
:100FC000890F130F02C0082F212F482F612FCE0148
:100FD0000E94D40F882379F1F701148215828E01C3
:100FE000015A1F4F4E01F0E68F0E911CF8016081EF
:100FF000C7010E94BB04682EF4016081C7010E94F2
:10100000BB04782E40E0662DCE010E94E80441E04A
:10101000672DCE010E94E80461E0C7010E94BB0475
:101020008111F0CFF70185818D1504F38285F501DB
:10103000808301C0C12C8C2DDF91CF911F910F9126
:10104000FF90EF90DF90CF90BF90AF909F908F90E8
:101050007F906F9008950F931F93CF93DF93EC01D0
:1010600089E093E00E94450B181619060CF04BC05E
:101070006AE070E080E090E00E94601689E093E012
:101080000E94230B182F853659F789E093E00E94C0
:10109000450B06972CF31093F20203EF12E089E060
:1010A00093E00E94230BF80181938F01F2E0093F46
:1010B0001F07A9F71092F9028091F6028F3F81F67F
:1010C0008091F7028F3F61F68091F8028F3F41F6E1
:1010D0004091F50250E060E070E09091F4022091C0
:1010E000F302209709F4BCCFFE01A191B1911097B2
:1010F00009F4B6CF8C912813F8CF11968C911197E3
:101100009813F3CF09C0D093F102C093F002DF919E
:10111000CF911F910F9108954130510561057105DF
:1011200061F41696ED91FC911797309709F498CFDA
:1011300018968D919C91199710C0452B462B472BE3
:1011400009F08ECF1A96ED91FC911B97309709F418
:1011500087CF1C968D919C911D97099581CFCF9338
:10116000DF93EC018091F0029091F102009711F071
:101170000E942B08BE0189E093E00E94670F6FEF89
:1011800089E093E00E947D0B6FEF89E093E00E947D
:101190007D0B6FEF89E093E0DF91CF910C947D0B95
:1011A0000F931F93CF93DF93CDB7DEB729970FB679
:1011B000F894DEBF0FBECDBF8B01AE014F5F5F4F16
:1011C0000E94021A882369F12A8130E0A901542F74
:1011D0004427550F550F550F898128E0829FC00184
:1011E00011249A01282B392BF80180818031E1F4F8
:1011F000688570E08F81AB01481B5109CA01969543
:10120000982F8827979587950E94502ACB01409761
:10121000207F53E0220F331F5A95E1F7820F931F6F
:1012200004C080E894EE01C0C90129960FB6F89475
:10123000DEBF0FBECDBFDF91CF911F910F910895FB
:101240008F929F92AF92BF92CF92DF92EF92FF92D6
:101250000F931F93CF93DF93EC018E819F810E94A8
:10126000CB1940E06CEC8E819F810E9478194881F7
:1012700064E48E819F810E9478198A81882309F411
:1012800042C0E981E950E33040F4F0E0EE0FFF1F87
:10129000ED5CFE4F0081118102C00EEE12E08B81E9
:1012A0008823F9F0888181111CC00E9458174B01D6
:1012B0005C016801110FEE08FF088E819F810E947A
:1012C0002519813001F10E945817DC01CB018C19DE
:1012D0009D09AE09BF0988159905AA05BB0568F3E4
:1012E00012C0B801110F880B990BDF91CF911F919C
:1012F0000F91FF90EF90DF90CF90BF90AF909F90B5
:101300008F900C946016DF91CF911F910F91FF90F9
:10131000EF90DF90CF90BF90AF909F908F90089507
:10132000CF93DF93CDB7DEB729970FB6F894DEBF22
:101330000FBECDBFFB0120812031D1F0AE014F5F48
:101340005F4F0E94021A882389F08D818F3361F0EC
:1013500020F48F3159F489E00CC08F3519F08F37A4
:1013600039F004C08BE005C08AE003C080E001C012
:101370008CE029960FB6F894DEBF0FBECDBFDF918B
:10138000CF9108958F929F92AF92BF92EF92FF926A
:101390000F931F93CF93DF93CDB7DEB760970FB650
:1013A000F894DEBF0FBECDBF7C014A015B018E0108
:1013B0000F5F1F4F8AE0F80111928A95E9F76BE2FF
:1013C00072E0CE010B960E94270F4AE0B801C401DB
:1013D0000E94A528F70164817581CE010B960E94B9
:1013E000F60E64E172E0CE010B960E94F60EF70154
:1013F00062817381CE010B960E94F60E66E172E067
:10140000CE010B960E94F60EB801CE010B960E94FB
:10141000F60E8B859C850E94AF080E941E13182F24
:101420008B859C850E947A2C812F60960FB6F8944C
:10143000DEBF0FBECDBFDF91CF911F910F91FF9007
:10144000EF90BF90AF909F908F900895EF92FF9292
:101450000F931F93CF93DF93CDB7DEB72E970FB6C1
:10146000F894DEBF0FBECDBF7C018B016CE172E052
:10147000CE0109960E94270FF70164817581CE0184
:1014800009960E94F60E64E172E0CE0109960E9470
:10149000F60EF70162817381CE0109960E94F60E65
:1014A00061E272E0CE0109960E94F60E89859A8566
:1014B0000E94AF08CE01019628E0FC0111922A9506
:1014C000E9F70115110509F450C044E650E060E069
:1014D00070E040930D0350930E0360930F037093DD
:1014E000100368E070E00E9456110897F1F58981B9
:1014F0008137D9F58E818F3FC1F58F818F3FA9F557
:1015000088858F3F91F52D818C8190E0A0E0B0E03F
:10151000DC0199278827B22B2A81822B4B8150E04E
:10152000542F4427052E000C660B770B842B952B2C
:10153000A62BB72BF80180839183A283B38311E09C
:1015400089859A850E947A2C612F70E080E090E076
:101550002E960FB6F894DEBF0FBECDBFDF91CF91B0
:101560001F910F91FF90EF90089510E0E9CF0F9336
:101570001F93CF93DF9300D000D000D0CDB7DEB75C
:10158000FC010281138101151105B9F066E272E0D8
:10159000CE0101960E94270FB801CE0101960E944C
:1015A000F60E89819A810E94AF080E941E13182F9F
:1015B00089819A810E947A2C01C010E0812F2696A1
:1015C0000FB6F894DEBF0FBECDBFDF91CF911F9154
:1015D0000F910895CF92DF92EF92FF920F931F9396
:1015E000CF93DF936C017A018B01C0E0D0E0CE1580
:1015F000DF0581F0D8016D918D01D601ED91FC914F
:101600000190F081E02DC6010995892B11F02196FA
:10161000EECF7E01C701DF91CF911F910F91FF9017
:10162000EF90DF90CF900895FC01538D448D252FCE
:1016300030E0842F90E0821B930B541710F0CF966C
:10164000089501970895FC01918D828D981761F09E
:10165000828DDF01A80FB11D5D968C91928D9F5FE9
:101660009F73928F90E008958FEF9FEF0895FC0194
:10167000918D828D981731F0828DE80FF11D858D47
:1016800090E008958FEF9FEF0895FC01918D228DDA
:10169000892F90E0805C9F4F821B91098F7399275F
:1016A000089589E093E00E94450B21E0892B09F41D
:1016B00020E0822F0895FC01848DDF01A80FB11D69
:1016C000A35ABF4F2C91848D90E001968F73992778
:1016D000848FA689B7892C93A089B1898C91837056
:1016E00080648C93938D848D981306C00288F3894F
:1016F000E02D80818F7D80830895EF92FF920F937C
:101700001F93CF93DF93EC0181E0888F9B8D8C8DAD
:10171000981305C0E889F989808185FD26C0F62ED9
:101720000B8D10E00F5F1F4F0F731127E02E8C8D74
:10173000E8120CC00FB607FCFACFE889F98980815E
:1017400085FFF5CFCE010E945B0BF1CF8B8DFE01A3
:10175000E80FF11DE35AFF4FF0829FB7F8940B8F0B
:10176000EA89FB89808180620AC09FB7F894EE897C
:10177000FF896083E889F989808183708064808330
:101780009FBF81E090E0DF91CF911F910F91FF907B
:10179000EF900895CF93DF93EC01888D8823C9F0F3
:1017A000EA89FB89808185FD05C0A889B9898C916A
:1017B00086FD0FC00FB607FCF5CF808185FFF2CF05
:1017C000A889B9898C9185FFEDCFCE010E945B0B72
:1017D000E7CFDF91CF91089580E090E0892B29F049
:1017E0000E94510B81110C940000089580E008952F
:1017F000DC011A96ED91FC911B9720E030E00994F2
:10180000DC011696ED91FC91179720E030E040E066
:1018100069E10994DC011696ED91FC91179720E09F
:1018200030E040E068E109949A01DC011696ED9100
:10183000FC911797462F67E10994EF92FF920F935F
:101840001F93CF93DF931F92CDB7DEB77C018B013F
:10185000D8016C916731E1F078F46531A0F1F801BD
:1018600041814983D7011696ED91FC91179720E0AD
:1018700030E0C701099524C06A31A8F06E3F19F520
:10188000F8014181498369E2C7010E94F80B18C041
:10189000F80181818983AE014F5F5F4F61E0C7012D
:1018A0000E94140C0DC00F5F1F4FD7011696ED91CB
:1018B000FC91179720E030E040E0C7010995C8CFC0
:1018C0000E5F1F4FC5CF0F90DF91CF911F910F91EA
:1018D000FF90EF900895462FDC011696ED91FC9154
:1018E000179720E030E066E10994462FDC01169658
:1018F000ED91FC91179720E030E065E10994EF92BB
:10190000FF920F931F93CF93DF93EC01142F790174
:101910006D30A9F118F46B3039F15FC06E3009F405
:1019200041C06F3009F059C00E940A0CF701838151
:101930000C89F8E08F9F000D112460E4CE010E9415
:10194000750C602F62956F706061CE010E94750CFE
:10195000602F6F70CE010E946B0CF7016481606B89
:10196000CE010E946B0C29C0411103C06CE471E0F0
:1019700002C067E471E0CE010E941D0C71C04111EC
:1019800008C060E471E00E941D0CE881F981828941
:1019900007C069E371E00E941D0CE881F981838929
:1019A0008C8B5EC00E940A0C61E8CE010E94750C0F
:1019B000612FCE010E946B0C0CC0F7014081518158
:1019C0006281660F660F660FCE010E94140C1150E3
:1019D000A1F7CE010E94000C43C0693031F486E8C3
:1019E00091E09983888382E0DBCF6A30B9F5EA859C
:1019F000FB8520E030E040E068E2CE010995EE8111
:101A0000FF8120E030E040E064E1CE01099541E053
:101A10006BE4CE010E94F80BE881F981448169E210
:101A2000CE010E94F80B40E06BE4CE010E94F80B5F
:101A3000E881F981448169E2CE010E94F80B41E01E
:101A40006BE4CE010E94F80BE881F981458169E2DF
:101A5000CE010E94F80B61E571E08DCF80E001C0FE
:101A600081E0DF91CF911F910F91FF90EF9008954A
:101A7000DC011896ED91FC91199720E030E040E0F0
:101A800069E10994DC011896ED91FC91199720E029
:101A900030E040E068E10994662329F06A3019F0EB
:101AA000862F90E008958FEF9FEF08950F93DC014C
:101AB000DF963C91DF97431BD596ED91FC91D6972D
:101AC00009950F910895CF93DF93FC01A081B18117
:101AD00093AD892F880F880F880F86AF50968C9111
:101AE0005097803208F08FE1880F880F880F85AFFC
:101AF00024AD822F880F880F880F87AF51963C91B5
:101B00005197422F50E0490F511D632F70E0641729
:101B1000750714F4932F921BEF01C05CDF4F88838D
:101B2000219628E0929F800D11248883219680EFD2
:101B3000888354968D919C915597813F910508F427
:101B40008883ED5BFF4F56968C918083DF91CF9118
:101B50000895EF92FF920F931F93CF93DF93EC01C1
:101B6000742F7770E1E0F0E0072E01C0EE0F0A94C9
:101B7000EAF73E2F7C018AE7E80EF11CD7018C9131
:101B8000823028F41E2F813019F430E001C010E0BB
:101B900050E0487F89AD9AADA881B9815096FC91FB
:101BA000F49FD001F59FB00D1124A60FB11DA80F11
:101BB000B91F01110BC08C91812B83278D9321506C
:101BC000D1F71CC0110F330F2223C1F09C91912B30
:101BD00093279C937F5F777021507111F3CF8DAD68
:101BE000A80FB11DF7018081823020F4813021F0EF
:101BF00031E002C031E0E8CF11E0E6CFDF91CF91D4
:101C00001F910F91FF90EF90089580E008950E943A
:101C1000C92D0F931F93CF93DF93EC018881998196
:101C2000009729F02A813B812617370788F48B011A
:101C30006F5F7F4F0E94032D009761F09983888327
:101C40001B830A832C813D81232B11F4FC0110821C
:101C500081E001C080E0DF91CF911F910F91089545
:101C6000CF93DF931F92CDB7DEB76983BE016F5F5D
:101C70007F4F0E9495140F90DF91CF910895EF92BE
:101C8000FF921F93CF93DF93EC01162F7A010E94EE
:101C9000420D60E4CE010E94300EE885F98597017F
:101CA000412F67E1CE010995CE01DF91CF911F91C0
:101CB000FF90EF900C94380DEF92FF921F93CF930B
:101CC000DF93EC01142F7901673128F4653140F47A
:101CD000643131F136C0673191F06A3170F031C052
:101CE0000E94420D60E0CE010E94300E612FCE01B5
:101CF0000E94300ECE010E94380D81E023C0A70162
:101D0000193148F068E1CE010E943F0E185188E178
:101D1000E80EF11CF4CF612FCE010E943F0EEDCFF3
:101D20008E898F3F11F488E78E8BE885F9859701BE
:101D3000412F64E1CE01DF91CF911F91FF90EF9091
:101D4000099480E0DF91CF911F91FF90EF9008956B
:101D5000CF92DF92EF92FF920F931F93CF93DF9377
:101D6000CDB7DEB72E970FB6F894DEBF0FBECDBF4E
:101D70008C01CB01BA012AE0AE014F5F5F4F6A01CF
:101D80000E947428F60101900020E9F73197EC19C0
:101D9000FD09E1F0D8011496ED90FC901597EE0E38
:101DA000FF1EB701C8010E94090E882381F0F801C7
:101DB0002081318184819581B601820F931F0E9419
:101DC000DE2DD8011596FC92EE92149781E02E96A6
:101DD0000FB6F894DEBF0FBECDBFDF91CF911F913C
:101DE0000F91FF90EF90DF90CF900895EF92FF92C8
:101DF0000F931F93CF93DF936115710511F480E06A
:101E00001FC0FB0101900020E9F73197E61BF70B9B
:101E1000B1F07B01EC010C811D810E0F1F1FB80179
:101E20000E94090E882359F3288139818C819D8174
:101E3000B701820F931F0E94DE2D1D830C8381E06A
:101E4000DF91CF911F910F91FF90EF900895EF9246
:101E5000FF920F931F93CF93DF93EC0119821882A7
:101E60001B821A821D821C826115710549F18B014A
:101E7000FB0101900020E9F731977F01E61AF70A8C
:101E8000B7010E94090E2881398181110DC02115E9
:101E9000310519F0C9010E947A2C198218821D821D
:101EA0001C821B821A820CC0FD82EC82B801C9011F
:101EB000DF91CF911F910F91FF90EF900C94DE2D49
:101EC000DF91CF911F910F91FF90EF9008956115D1
:101ED000710579F0FB0101900020E9F73197AF011E
:101EE000461B570BDC01ED91FC910280F381E02D44
:101EF000099480E090E008951F920F920FB60F9220
:101F000011242F933F934F935F936F937F938F93FE
:101F10009F93AF93BF93EF93FF9389E093E00E9469
:101F20005B0BFF91EF91BF91AF919F918F917F914B
:101F30006F915F914F913F912F910F900FBE0F9036
:101F40001F9018951F920F920FB60F9211242F9386
:101F50008F939F93EF93FF93E0911903F0911A03EE
:101F60008081E0911F03F091200382FD12C09081D7
:101F7000809122038F5F8F7320912303821751F08A
:101F8000E0912203F0E0E75FFC4F958F80932203FE
:101F900001C08081FF91EF919F918F912F910F90C0
:101FA0000FBE0F901F9018950F93FC01EA5BFF4F37
:101FB000308131965081451728F4301730F00417DE
:101FC00020F010C03017D8F30DC0FC01EC5BFF4FC0
:101FD000308131968081681738F4321740F081E003
:101FE000261730F080E004C03217C8F3FBCF81E041
:101FF0000F9108952F923F924F925F926F927F922E
:102000008F929F92AF92BF92CF92DF92EF92FF9208
:102010000F931F93CF93DF93EC014C0184E4880E60
:10202000911CF4011082329720805E01F5E4AF0E1E
:10203000B11CF5012082359730806E01F6E4CF0E99
:10204000D11CF6013082359740807E01F7E4EF0E17
:10205000F11CF701408234961081329760803196EE
:10206000708032975080012F262D472D652DCE018F
:102070000E94D40FCC58DF4F811102C0188212C0C9
:1020800081E08883552011F0F4015082621410F42D
:10209000F5016082371410F4F6017082141510F403
:1020A000F7011083DF91CF911F910F91FF90EF9077
:1020B000DF90CF90BF90AF909F908F907F906F9068
:1020C0005F904F903F902F9008950F93DC01802FE9
:1020D000FD01EC58FF4F9081992309F463C022233E
:1020E00009F460C0223048F0023019F46F5F621BBF
:1020F00004C0033011F44F5F421B082F0170FD0133
:1021000080FD25C0EA5BFF4F8081481708F44AC074
:1021100031968081481708F045C0329790813197F9
:102120008081260F261730F4691718F42FEF290F36
:1021300003C0682F6917B0F58217A0F5681708F477
:10214000682F291708F4922F292F261B22C0EC5B39
:10215000FF4F8081681730F131968081681710F544
:102160003296908131978081240F241730F44917DB
:1021700018F42FEF290F03C0482F491798F482173E
:1021800088F4481708F4482F291708F4922F292FAC
:10219000241BD796ED91FC91D8970480F581E02D12
:1021A000CD0109950F910895BF92CF92DF92EF92E2
:1021B000FF920F931F93CF93DF93EC016B018D85FB
:1021C000811105C0CE010E94CB19811105C01B866B
:1021D0001D861C8680E060C040E060EFCE010E945A
:1021E000781901E0E12CB12C11E0CE010E942519F3
:1021F000F82ECE010E94251991E0F91203C081301A
:10220000B1F434C02E2D30E0F8121BC08B851817A6
:1022100038F4FE01E20FF31F8381802341F402C0F2
:10222000811729F0F12C193058F41C8709C0FE01E0
:10223000EE0DF11D8381802B8383FF24F39409C06D
:10224000B12EFE01E20FF31F9381802F8095892329
:1022500083836F2DCE010E9449191F5F000F11F477
:10226000E39401E087E08E1508F0BFCF113408F445
:10227000AECFBB86B11002C081E08D878B818823F1
:1022800009F4A5CFDE011396F6012B968D9181936B
:10229000CA17DB07D9F781E0DF91CF911F910F912A
:1022A000FF90EF90DF90CF90BF9008958F929F9214
:1022B000AF92BF92EF92FF920F931F93CF93DF9352
:1022C0008B017C01C0E0D0E0C017D107A1F10E94D2
:1022D0005817609311037093120380931303909324
:1022E000140389E093E00E94230B97FF1FC00E9414
:1022F00058178090110390901203A0901303B09090
:102300001403DC01CB0188199909AA09BB09809043
:102310000D0390900E03A0900F03B090100388154A
:102320009905AA05BB05E8F28E0105C0F701819366
:102330007F012196C9CFC801DF91CF911F910F91E5
:10234000FF90EF90BF90AF909F908F900895CF92A5
:10235000DF92EF92FF920F931F93CF93DF9300D002
:1023600000D01F92CDB7DEB7C090E5030091E60321
:10237000E091AA03F091AB03D188102FE12CF12C4E
:10238000E091AA03F091AB0380894091E30350915F
:10239000E4031C821D838B8328E0829FC0011124EB
:1023A0008E9D90018F9D300D9E9D300D1124CA0190
:1023B000820F931F9A838983E091AE03F091AF035C
:1023C0009E012F5F3F4F41E06FE08AEA93E009955D
:1023D0001F5F812F801B8C1528F48FEFE81AF80AF5
:1023E0001D1570F20F900F900F900F900F90DF91CE
:1023F000CF911F910F91FF90EF90DF90CF900895B4
:1024000085ED8093BC008091BC0084FDFCCF1092D0
:10241000970608954091FD06262F30E0240F311DC8
:1024200021323105DCF4209197062430C9F4FC01F7
:1024300080E090E0861758F43091FD062191DC0190
:10244000A352B94FA30FB11D2C930196F3CF8091E6
:10245000FD06680F6093FD0680E0089581E0089511
:1024600082E0089508950895E0918F0680918E0688
:10247000E81730F4F0E0E354F94F808190E00895DC
:102480008FEF9FEF089590918F0680918E06981799
:1024900050F4E92FF0E0E354F94F208130E09F5FE2
:1024A00090938F0602C02FEF3FEFC90108958091EE
:1024B0008E0690E020918F06821B91090895CF929D
:1024C000DF92EF92FF920F931F93CF93DF937C01E4
:1024D000CB018A0120918D06222389F0EB016B014B
:1024E000C40ED51ECC15DD0569F06991D701ED91BB
:1024F000FC910190F081E02DC7010995F3CF642F85
:102500000E940A12C801DF91CF911F910F91FF9095
:10251000EF90DF90CF900895CF93DF931F92CDB7C8
:10252000DEB7698320918D062223D1F02091900699
:10253000203240F021E030E0FC013383228380E050
:1025400090E015C080919106E82FF0E0E359F94F33
:10255000998190838F5F809391068093900605C048
:1025600061E0CE0101960E940A1281E090E00F9096
:10257000DF91CF910895833081F028F4813099F074
:102580008230A1F008958730A9F08830B9F0843006
:10259000D1F4809180008F7D03C0809180008F777F
:1025A00080938000089584B58F7702C084B58F7DB5
:1025B00084BD08958091B0008F7703C08091B000F2
:1025C0008F7D8093B00008953FB7F894809169069D
:1025D00090916A06A0916B06B0916C0626B5A89BF7
:1025E00005C02F3F19F00196A11DB11D3FBFBA2FA5
:1025F000A92F982F8827820F911DA11DB11DBC0105
:10260000CD0142E0660F771F881F991F4A95D1F7C9
:102610000895E6EAF3E0A481B58150968C9147AD28
:10262000849FA001112483E0440F551F8A95E1F790
:1026300060E070E085AD96AD0C94D72DCF93DF931D
:1026400000D000D0CDB7DEB719821A821B821C825F
:1026500084E690E0A0E0B0E080930D0390930E0339
:10266000A0930F03B093100364E070E0CE010196D5
:102670000E9456118981813051F48A818F3F39F44B
:102680008B818F3F21F481E09C819F3F09F080E0A6
:102690000F900F900F900F90DF91CF910895CF93EF
:1026A000DF93C6EAD3E08093E603EBADFCAD019087
:1026B000F081E02D8AEA93E00995EBADFCAD028054
:1026C000F381E02D8AEA93E0DF91CF910994CF93D3
:1026D0000E94A711C091E6038091E503C80FE09125
:1026E000AA03F091AB038189C81768F0E091AE03AB
:1026F000F091AF0320E030E040E060E18AEA93E04F
:10270000099580E009C08091250481110E94091378
:102710008C2F0E944F1381E0CF9108958091250462
:1027200081110E94091380E00C944F13EF92FF92E5
:102730001F93CF93DF931092C3037C0110E0DEE080
:10274000C4E0F70161917F01E091AC03F091AD032A
:102750008AEA93E009958F3FFFEF9F07E9F08E3FEC
:102760002FEF920771F39C014D2F6C2F8AEA93E0B3
:102770000E949E0690910604913049F030F092300C
:1027800041F0933039F4D81B05C0C80F03C0D80FEF
:1027900001C0C81B180FD5CF812FDF91CF911F919A
:1027A000FF90EF900895682F86EA93E00C94C1188B
:1027B000CF93DF932091F6033091F7032817390761
:1027C00009F4AAC0EC019093F7038093F603FC018F
:1027D0008491809307043196E491E0930804FE010C
:1027E0003296E491E0930904FE013396E491E0937C
:1027F0000A04FE013496E491E0930B04FE01359641
:10280000E491E0930C04FE013696E491E0930D040C
:10281000FE013796E491E0930E04FE013896E491B0
:10282000E0930F04FE013996E491E0931004FE0159
:102830003A96E491E0931104FE013B96E491E09313
:102840001204FE013C96E491E0931304FE013D96D0
:10285000E491E0931404FE013E96E491E0931504A4
:10286000FE013F96E491E0931604FE017096E49118
:10287000E093170461E1CE010E949206909319043F
:102880008093180463E1CE010E94920690931B048A
:1028900080931A0465E1CE010E94920690931D0474
:1028A00080931C048091F6039091F703892BA1F18A
:1028B00080911404809320044091150440932104D6
:1028C00090911F04992341F1913069F4909116047D
:1028D000891714F490932004809117048417E4F46A
:1028E0008093210419C03091110420911304082E03
:1028F000000C990B622F022E000C770B630F711DD9
:1029000037FD7A95861797071CF4320F3093200411
:10291000241714F420932104DF91CF91089583307C
:1029200008F081E08093240408959B01DC0118964F
:10293000ED91FC91199741E067E109941F920F9284
:102940000FB60F9211242F933F934F935F936F9382
:102950007F938F939F93AF93BF93EF93FF93809158
:10296000B900887F803609F49CC068F5883209F484
:102970005BC090F4803109F454C038F4882309F422
:10298000F6C0883009F44DC0F6C0883109F44CC057
:10299000803209F45DC0EFC0803409F468C048F4A7
:1029A000803309F455C0883309F0E5C0809396065A
:1029B000D8C0803509F44FC0883509F45DC088342B
:1029C00009F0D9C0D6C0883909F4C7C0A8F488373F
:1029D00009F467C038F4883609F463C0803709F415
:1029E00060C0C9C0883809F4B8C0803909F45FC034
:1029F000803809F0C0C05BC0803B09F486C038F461
:102A0000803A09F466C0883A09F47FC0B4C0803CBB
:102A100009F4A7C0883C09F4A4C0883B09F48AC023
:102A2000AAC08091BC0610C09091BB068091BA06E6
:102A3000981770F5E091BB0681E08E0F8093BB067E
:102A4000F0E0E656F94F80818093BB0085EC86C0AC
:102A5000809396068EC0E091BB0681E08E0F809336
:102A6000BB068091BB00F0E0E656F94F8083909161
:102A7000BB068091BA066EC0E091BB0681E08E0F66
:102A80008093BB068091BB00F0E0E656F94F80834F
:102A90008091990681116DC081E08093980684EA47
:102AA00061C083E08093970610921F07CFCF80917B
:102AB0001F07803208F051C0E0911F0781E08E0FA0
:102AC00080931F078091BB00F0E0E150F94F8083B5
:102AD000BDCF85EC8093BC001092970680911F07B4
:102AE000803230F4E0911F07F0E0E150F94F10829E
:102AF00060911F0770E0E0919406F09195068FEFCA
:102B000096E0099510921F0736C084E080939706DF
:102B10001092FE061092FD06E0919206F091930647
:102B200009958091FD06811105C081E08093FD0625
:102B30001092DD06E091FE0681E08E0F8093FE0686
:102B4000F0E0E352F94F80818093BB009091FE0644
:102B50008091FD06981708F479CF85E88093BC0032
:102B60000AC085EC8093BC001092970604C01092B6
:102B700096060E940012FF91EF91BF91AF919F9135
:102B80008F917F916F915F914F913F912F910F9016
:102B90000FBE0F901F901895CF93DF93282F30E032
:102BA000F901ED5DF74F8491F901E15FF74FD491A1
:102BB000F901E550F84FC491CC2391F081110E94A6
:102BC000BB12EC2FF0E0EE0FFF1FEF50F84FA59176
:102BD000B491EC91ED2381E090E021F480E002C01B
:102BE00080E090E0DF91CF9108951F93CF93DF9322
:102BF000282F30E0F901ED5DF74F8491F901E15F95
:102C0000F74FD491F901E550F84FC491CC23C1F0AE
:102C1000162F81110E94BB12EC2FF0E0EE0FFF1F68
:102C2000E951F84FA591B4919FB7F894111104C0E0
:102C30008C91D095D82302C0EC91DE2BDC939FBF02
:102C4000DF91CF911F910895CF93DF9390E0FC0126
:102C5000E15FF74F2491FC01E550F84F8491882300
:102C600061F190E0880F991FFC01E352F84FC59184
:102C7000D491FC01E951F84FA591B491611109C0BB
:102C80009FB7F8948881209582238883EC912E2326
:102C90000BC0623061F49FB7F8948881322F309571
:102CA00083238883EC912E2B2C939FBF06C08FB774
:102CB000F894E8812E2B28838FBFDF91CF91089560
:102CC0008F929F92AF92BF92CF92DF92EF92FF923C
:102CD0006B017C010E94E4124B015C01C114D10420
:102CE000E104F104F1F00E94E412DC01CB01881947
:102CF0009909AA09BB09883E9340A105B10570F363
:102D000021E0C21AD108E108F10888EE880E83E0BC
:102D1000981EA11CB11CC114D104E104F10419F7DF
:102D2000DDCFFF90EF90DF90CF90BF90AF909F905E
:102D30008F900895CF92DF92EF92FF920F931F939F
:102D4000CF93DF93CDB7DEB761970FB6F894DEBFB0
:102D50000FBECDBF8C017B010E9490098C3019F40D
:102D6000DD24D39495C0AE014F5F5F4FB701C8011A
:102D70000E94021AD82E882309F48AC0F7018081A4
:102D8000803171F38FE78D83F801868197810E94EE
:102D9000CB19B701F801868197810E94AC1940E0F8
:102DA0006EE4F801868197810E94781940E06B817A
:102DB000F801868197810E94781940E06C81F801C2
:102DC000868197810E947819F7018081803139F0DE
:102DD00040E06D81F801868197810E947819F801A1
:102DE000868197810E94CB19B701F801868197816E
:102DF0000E94AC19F801408168E4868197810E94A5
:102E0000781964E170E080E090E00E946016F801BB
:102E10008081882331F06AE070E080E090E00E94D9
:102E20006016F801868197810E94CB19F801818193
:102E30008D3018F48CE0818393CF8CE0F80181838E
:102E4000E12CF12CF801848190E0E816F90604F5F4
:102E50004E2DBE01665F7F4FC8010E94EA18F8013F
:102E6000C180BE01665F7F4FC8010E9490098C152A
:102E700018F4F801818106C0BE01665F7F4FC8016A
:102E80000E949009F8018183FFEFEF1AFF0ADACF61
:102E90008D2D61960FB6F894DEBF0FBECDBFDF91CA
:102EA000CF911F910F91FF90EF90DF90CF900895F9
:102EB0002FB7F89460916506709166068091670659
:102EC000909168062FBF0895CF92DF92EF92FF9204
:102ED0000F931F93CF93C0912C0184E0CC2311F169
:102EE0000E94CC1521E0892B09F020E020932C01D1
:102EF0000E945817C0902801D0902901E0902A0123
:102F0000F0902B019701860108531F4F2F4F3F4F21
:102F1000061717072807390718F5CD28CE28CF2818
:102F200009F51EC00E94CC1521E0009709F020E0B1
:102F300020932C01892B59F40E9458176093280183
:102F40007093290180932A0190932B010DC0109258
:102F500028011092290110922A0110922B0104C01D
:102F6000C0E002C0C0912C018C2FCF911F910F9116
:102F7000FF90EF90DF90CF900895CF92DF92EF9285
:102F8000FF920F931F93CF93DF93CDB7DEB7609778
:102F90000FB6F894DEBF0FBECDBF6B017C018E0172
:102FA0000F5F1F4F8AE0F80111928A95E9F76BE2F3
:102FB00072E0CE010B960E94270F4AE0B801C601CD
:102FC0000E94A5286091C4047091C504CE010B969F
:102FD0000E94F60E66E172E0CE010B960E94F60E9C
:102FE000B801CE010B960E94F60E8B859C850E943F
:102FF000AF080E941E13182F8B859C850E947A2C87
:10300000812F60960FB6F894DEBF0FBECDBFDF9163
:10301000CF911F910F91FF90EF90DF90CF90089587
:10302000DC0180E0615098F02D91982F9227E92FD4
:10303000EF70F0E0E95CF74F249192959F70E92FD3
:10304000F0E0E95BF74FE491822F8E27EBCF0895F4
:10305000CF92DF92EF92FF920F931F93CF93DF9364
:103060006C01EB017B01E40EF51E00E010E0CE15D3
:10307000DF0561F06991D601ED91FC910190F0813D
:10308000E02DC6010995080F191FF1CFC801DF9186
:10309000CF911F910F91FF90EF90DF90CF90089507
:1030A0008091DF029091E002A091E102B091E202F2
:1030B000803223EA92072AE5A207B105A0F4805ADC
:1030C0009541AF4FBF4F8093DF029093E002A093F2
:1030D000E102B093E2021092EA021092EB02109227
:1030E000EC021092ED0210921F011092200110923A
:1030F00021011092220110922301109224011092BA
:1031000025011092260181E0809327010895809186
:10311000DF029091E002A091E102B091E2028934D5
:103120002EEE9207A105B105A0F080569A4EA10996
:10313000B1098093DF029093E002A093E102B09383
:10314000E2021092EA021092EB021092EC0210924C
:10315000ED0210921F011092200110922101109295
:103160002201109223011092240110922501109245
:10317000260181E0809327010895089580E090E082
:1031800008950F931F93CF93DF93EC018C010C5F95
:103190001F4FFC01E058FF4F0190F081E02DC80166
:1031A00009958E3F2FEF920770F4FE01ED57FF4F08
:1031B000CE57DF4F9C0140816881C8010E949E0666
:1031C0009881890F888381E090E0DF91CF911F91F2
:1031D0000F910895DF92EF92FF920F931F93CF9379
:1031E000DF937C018B01D42EDC011696ED91FC91CE
:1031F0001797138615861486DF011B9633961E9249
:10320000EA17FB07E1F7C0E0B801F7018681978173
:103210000E94D410D82F882371F0DC1209C067E017
:10322000C8010E941018D80117969C91891721F0A7
:10323000CF5FDC1648F7D0E08D2FDF91CF911F9143
:103240000F91FF90EF90DF900895FC019081018035
:10325000F281E02DF8948181892B81832281892F4D
:10326000809528232283A7E0B0E01197F1F7218110
:1032700082238183A3E2B0E01197F1F780817894F3
:10328000EFECF0E03197F1F7982381E009F480E06A
:103290000895FC0190810180F281E02D892F8095B5
:1032A00060FF12C0F8942281822382838181892B5E
:1032B0008183A3E2B0E01197F1F78281982B92838A
:1032C000789487ED90E011C0F89422818223828364
:1032D0008181892B8183AFEFB0E01197F1F7828173
:1032E000982B928378948FE090E00197F1F70895FE
:1032F000DF92EF92FF920F931F93CF93DF93EC0136
:10330000D62EE42E08E010E0FF24F39461E08D2D2A
:103310008F2109F460E0CE010E944919FF0C015091
:103320001109A1F7E11010C0F894E981FA819181A7
:103330008881809589238183E981FA8192818881BE
:103340008095892382837894DF91CF911F910F918B
:10335000FF90EF90DF900895EF92FF920F931F93ED
:10336000CF93DF938C017B0140E065E50E947819E3
:10337000E70188E0E80EF11C699140E0C8010E9475
:103380007819CE15DF05C1F7DF91CF911F910F910D
:10339000FF90EF900895DC012C911196ED91FC9136
:1033A0001297F8948181922F909589238183789444
:1033B0008DE743E050E0815021F1DA011197F1F7F8
:1033C00030813223C1F3F894828189238283818101
:1033D000822B81837894ABE7B7E01197F1F7F894EB
:1033E00081819823918383E191E00197F1F78081B6
:1033F000282381E009F080E07894E3E6F6E0319755
:10340000F1F708956F927F928F929F92AF92BF9241
:10341000CF92DF92EF92FF920F931F93CF93DF93A0
:10342000EC017B018A018E819F810E94CB19882348
:10343000B1F1B7018E819F810E94AC1940E06EEB23
:103440008E819F810E9478197801680189E0C80EF9
:10345000D11CAE80BF8088E0882E912C712C662410
:103460006394C5010E94251981117628660CE1E05C
:103470008E1A9108B1F7F70171927F01EC15FD05E5
:1034800041F78E819F810E94CB19813041F468E021
:10349000C8010E94101891E0F8012085281390E0DF
:1034A000892FDF91CF911F910F91FF90EF90DF90C7
:1034B000CF90BF90AF909F908F907F906F90089526
:1034C000EF92FF920F931F93CF93DF93CDB7DEB7A9
:1034D00028970FB6F894DEBF0FBECDBF8C01DC017C
:1034E0001696ED91FC911797138615861486DF01C9
:1034F0001B9633961E92EA17FB07E1F7F801148238
:103500001582FF24F394BE016F5F7F4FD80116969A
:103510008D919C9117970E94D410882309F469C05B
:1035200067E0CE0101960E94101898858913EBCFB1
:10353000F8018081811124C0868197810E94CB1976
:10354000BE016F5F7F4FD80116968D919C911797A2
:103550000E94AC1940E064EBF801868197810E94DB
:103560007819D80116968D919C9117970E9425196C
:10357000E82EF801868197810E94CB19EE2071F127
:10358000D8011196EC90BE016F5F7F4FC8010E9479
:1035900090098E1518F4F801818106C0BE016F5F95
:1035A0007F4FC8010E949009D80111968C93119702
:1035B00014968C9114978F5F14968C93898188321E
:1035C00081F030F4803169F0823209F09CCF09C07B
:1035D0008B3339F0823409F096CF03C0F801F082C2
:1035E000CFCFD80115968C9115978F5F15968C9338
:1035F0008ACF28960FB6F894DEBF0FBECDBFDF91FD
:10360000CF911F910F91FF90EF900895FC012081C1
:10361000261749F06083462F50E060E070E088E0B4
:1036200095E00C94C2090895CF93CFEFC80F6C2F8B
:10363000617088E00E94F5156C2F627089E00E942D
:10364000F5156C2F64708AE0CF910C94F51580917C
:1036500000018F5F893008F088E08093000160915D
:10366000000170E080E090E00E94BD1780910001B1
:103670000E94141B10921F01109220011092210130
:103680001092220110922301109224011092250120
:103690001092260181E08093270108958091000116
:1036A000815009F481E0809300016091000170E095
:1036B00080E090E00E94BD17809100010E94141BE1
:1036C00010921F01109220011092210110922201EC
:1036D00010922301109224011092250110922601CC
:1036E00081E0809327010895682F8CE00C94F515F4
:1036F0000F931F934091E80281E048274093E8022E
:1037000050E060E070E084E494E00E94C20910920E
:10371000EA021092EB021092EC021092ED029091EC
:10372000E8028091E7029923A9F19091E9028111C1
:1037300029C091112BC00E94741B0E945817009140
:10374000E3021091E4022091E5023091E602AB0120
:10375000BC01401B510B620B730B8091DF029091F7
:10376000E002A091E102B091E202841B950BA60B4E
:10377000B70B8093DF029093E002A093E102B09335
:10378000E2021BC0911102C081E001C080E00E94F2
:10379000741B13C0811111C08091E90281110DC009
:1037A00081E00E94741B0E9458176093E30270939B
:1037B000E4028093E5029093E60210921F011092BA
:1037C00020011092210110922201109223011092E7
:1037D0002401109225011092260181E08093270197
:1037E0001F910F91089561E068278BE00C94F51507
:1037F000CF9380E495E00E94B70A1092EE02C1E0F8
:10380000C093000180E00E94741B81E00E94F31BC2
:10381000809100010E94141BE7E1F1E010861186FF
:10382000128613861486158616861786C08BCF914E
:1038300008950F931F938091E90281115AC040911E
:10384000E70281E048274093E70250E060E070E043
:1038500086E394E00E94C2091092EA021092EB0201
:103860001092EC021092ED028091E7028823F1F1B0
:1038700081E00E94741B80910001863068F486E02C
:103880008093000166E070E080E090E00E94BD1748
:10389000809100010E94141B8091E802811124C0D4
:1038A0000E9458170091E3021091E4022091E50272
:1038B0003091E602AB01BC01401B510B620B730B54
:1038C0008091DF029091E002A091E102B091E202CA
:1038D000841B950BA60BB70B8093DF029093E0023D
:1038E000A093E102B093E20280E01AC08091E80266
:1038F0001CC00E946417811128C01092EA02109225
:10390000EB021092EC021092ED0281E08093DE0255
:103910008091E802882339F080E00E94741B81E0E6
:103920000E94F31B12C08091E7028111F5CF81E064
:103930000E94741B0E9458176093E3027093E40284
:103940008093E5029093E602EACF10921F01109255
:103950002001109221011092220110922301109255
:103960002401109225011092260181E08093270105
:103970001F910F9108950E946417811105C0109244
:10398000E90281E00C94F31B0895CF93DF9300D0FC
:1039900000D0CDB7DEB782E08093EE0281E0809365
:1039A00000010E94741B81E00E94F31B80910001C2
:1039B0000E94141B1092EA021092EB021092EC0289
:1039C0001092ED021092E7021092E8021092E902C2
:1039D00040E050E0BA0186E394E00E94C2094091C1
:1039E000E80250E060E070E084E494E00E94C209E4
:1039F00019821A821B821C82BE016F5F7F4F84E294
:103A000095E00E94260A672B682B692BA9F3298170
:103A10003A814B815C81A0E6BAEE0E94F329609363
:103A2000DF027093E0028093E1029093E20282E36E
:103A300095E00E94B70A8823D1F30E94581760933B
:103A4000E3027093E4028093E5029093E602109201
:103A50001F01109220011092210110922201109258
:103A6000230110922401109225011092260181E079
:103A7000809327010F900F900F900F90DF91CF91BF
:103A80000895CF93DF93CDB7DEB7A9970FB6F8941B
:103A9000DEBF0FBECDBF789484B5826084BD84B58F
:103AA000816084BD85B5826085BD85B5816085BD39
:103AB00080916E00816080936E00109281008091F1
:103AC0008100826080938100809181008160809379
:103AD0008100809180008160809380008091B1009E
:103AE00084608093B1008091B00081608093B000C9
:103AF00080917A00846080937A0080917A0082605D
:103B000080937A0080917A00816080937A0080911E
:103B10007A00806880937A001092C10062E084E0AD
:103B20000E94241661E08BE00E94241660E08BE086
:103B30000E94F51561E08CE00E94241660E08CE0A4
:103B40000E94F51561E08DE00E94241660E08DE092
:103B50000E94F51561E080E00E94241660E080E09C
:103B60000E94F51561E088E00E94241660E088E07C
:103B70000E94F51561E089E00E94241660E089E06A
:103B80000E94F51561E08AE00E94241660E08AE058
:103B90000E94F5158AE695E00E94601A8EE795E08E
:103BA0000E94601A40E062E975E08AE695E00E94B2
:103BB000EA1840E06AE975E08EE795E00E94EA18AD
:103BC00062E975E08AE695E00E949A166AE975E076
:103BD0008EE795E00E949A168AE695E00E942009F9
:103BE0008EE795E00E942009E0911903F0911A03F5
:103BF00002E00083E0911503F09116031082E0913A
:103C00001703F09118038FEC808310922103E09149
:103C10001D03F0911E0316E01083E0911B03F09149
:103C20001C03808180618083E0911B03F0911C0361
:103C3000808188608083E0911B03F0911C03808168
:103C400080688083E0911B03F0911C0380818F7D4D
:103C500080838BE292E00E94AF0884ED91E00E94A5
:103C6000AF080E941E138CED91E00E94AF080E94E5
:103C70001E1383EE91E00E94AF080E941E1389E09C
:103C800093E00E94CA0BE0911B03F0911C0380811A
:103C90008F7E8083E0911B03F0911C038081877FDE
:103CA0008083E0911B03F0911C0380818F778083D8
:103CB000E0911B03F0911C0380818F7D80838091B4
:103CC000230380932203E0911903F0911A030083E8
:103CD000E0911503F09116031082E0911703F09123
:103CE000180383E0808310922103E0911D03F0917B
:103CF0001E031083E0911B03F0911C0380818061FF
:103D00008083E0911B03F0911C0380818860808395
:103D1000E0911B03F0911C03808180688083E09117
:103D20001B03F0911C0380818F7D80838BE292E0E6
:103D30000E94AF0885EC9CE19093E5048093E40435
:103D40008EED94E09093E7048093E6048BEB9CE186
:103D50009093D7048093D60480ED94E09093D90497
:103D60008093D80487E898E19093AD048093AC04E5
:103D700086EA94E09093AF048093AE0480E598E1E6
:103D800090939F0480939E0488E994E09093A1040B
:103D90008093A0048EE49BE190939104809390041F
:103DA0008AE894E0909393048093920487E29BE1E5
:103DB00090938304809382048CE794E0909385042D
:103DC0008093840489E19CE190937504809374044A
:103DD0008EE694E0909377048093760488E79BE1E5
:103DE000909367048093660480E694E0909369045E
:103DF0008093680488EF9BE1909359048093580462
:103E000082E594E090935B0480935A041092EE0252
:103E100081E080930001E091AE03F091AF0320E0D8
:103E200030E040E06AE08AEA93E009950E948E1350
:103E30000E9467138111FCCF0E944F13E091AE03E3
:103E4000F091AF0320E030E040E06BE08AEA93E0DD
:103E5000099581E00E94F31B0E9458171B012C0159
:103E6000A0901F01B0902001C0902101D0902201AC
:103E7000E0902301F090240100912501109126018A
:103E80009B01A20160E070E080E090E00E94A52A22
:103E900078F161E08DE00E94F5150E945817DC0171
:103EA000CB01845D9E4FAF4FBF4F8C019D0180932E
:103EB0001701109318012093190130931A011092E1
:103EC0001B0110921C0110921D0110921E018FEF18
:103ED00080931F0180932001809321018093220110
:103EE00080932301809324018093250180932601F0
:103EF0000E9458171B012C01A0901701B0901801C7
:103F0000C0901901D0901A01E0901B01F0901C01A3
:103F100000911D0110911E019B01A20160E070E063
:103F200080E090E00E94A52AA8F18DE00E94F5159E
:103F30008FEF80931701809318018093190180936C
:103F40001A0180931B0180931C0180931D018093B3
:103F50001E01809127018230E8F081508093270173
:103F60000E945817DC01CB0188539F4FAF4FBF4FC2
:103F70008C019D0180931F0110932001209321014A
:103F800030932201109223011092240110922501F6
:103F9000109226010E9458171B012C01A090CF05FA
:103FA000B090D005C090D105D090D205E090D30557
:103FB000F090D4050091D5051091D6059B01A20182
:103FC00060E070E080E090E00E94A52A09F008F42B
:103FD0008CC00091CE0510E040E0BE016F5F7F4FC6
:103FE0008AE695E00E94EA18811105C060E070E061
:103FF0008EEF92EC17C0BE016F5F7F4F8AE695E0AF
:104000000E94D008813824EE920784F3BC01990FF6
:10401000880B990B0E94D62820E030E040E05CE35A
:104020000E943529000F111F000F111FF801EE55D6
:10403000FA4F60837183828393838091CE058F5F73
:104040006AE00E94442A9093CE058AE695E00E9499
:10405000200940E0BE016F5F7F4F8EE795E00E9430
:10406000EA18811105C060E070E08EEF92EC17C095
:10407000BE016F5F7F4F8EE795E00E94D0088138C8
:1040800034EE930784F3BC01990F880B990B0E94BF
:10409000D62820E030E040E05CE30E9435296093C0
:1040A000CA057093CB058093CC059093CD058EE720
:1040B00095E00E9420090E945817DC01CB01825133
:1040C0009D4FAF4FBF4F8C019D018093CF05109343
:1040D000D0052093D1053093D2051092D3051092CC
:1040E000D4051092D5051092D6058091EE0281116B
:1040F000F3C081E191E00E942B080E9458170091C3
:10410000EA021091EB022091EC023091ED0260176F
:1041100071078207930708F4DFC0BE016F5F7F4F0E
:1041200086E195E00E94260A672B682B692B19F01F
:10413000898180932F0460912F04062E000C770B49
:10414000880B990B0E94D6284B015C010091CE058B
:1041500010E0C80109966AE070E00E94502AFC0154
:10416000EE0FFF1FEE0FFF1FEE55FA4FC080D180FC
:10417000E280F380A7019601C501B4010E94DD2B06
:1041800087FD1AC08091E902882311F063E001C025
:1041900062E080E394E00E94061B4091E90281E026
:1041A000482780913104841709F47DC0409331047D
:1041B00050E060E070E073C0A5019401C701B60152
:1041C0000E94C82A4B015C01000F111F000F111F34
:1041D000F801EE55FA4FA701960160817181828145
:1041E00093810E94C82A20E030E64AEE55E40E94FE
:1041F000352B9B01AC01C501B4010E94352B0E94F7
:10420000A72B28EE33E040E050E00E94862A57FFBB
:1042100003C020E030E0A901BA01A901483E83E0D3
:1042200058076105710524F047EE53E060E070E047
:104230008091320490913304A0913404B0913504FC
:1042400084179507A607B70761F04093320450938F
:10425000330460933404709335048AEF94E00E9431
:10426000C209BE016F5F7F4F88E095E00E94260A79
:104270008981823058F08091E902882311F063E04F
:1042800001C061E080E394E00E94061B809131044C
:10429000882349F01092310440E050E0BA018CEEDE
:1042A00094E00E94C2090E946417882329F080913B
:1042B000E902882309F4F1C20E945817DC01CB01FE
:1042C00088539F4FAF4FBF4F8093EA029093EB020A
:1042D000A093EC02B093ED028091EE02823009F0DF
:1042E0007DC181E091E00E942B080E946417882321
:1042F00009F446C08091E902811142C081E08093B7
:10430000E90263E080E394E00E94061B1092EA0257
:104310001092EB021092EC021092ED0280E00E94EB
:10432000741B8091E802811128C08091E7028111FD
:1043300024C00E9458170091E3021091E4022091DA
:10434000E5023091E602AB01BC01401B510B620B50
:10435000730B8091DF029091E002A091E102B09195
:10436000E202841B950BA60BB70B8093DF029093A0
:10437000E002A093E102B093E20280E00E94F31B0E
:104380000E946417811114C08091E902882381F092
:104390008091EA029091EB02A091EC02B091ED02C3
:1043A000892B8A2B8B2B21F48091DE02811181C213
:1043B0000E945817C090EA02D090EB02E090EC0205
:1043C000F090ED026C157D058E059F0508F406C181
:1043D0002091E802211177C21091E70211117EC2EB
:1043E0002091E90221117AC20E9458170091E3023C
:1043F0001091E4022091E5023091E6026B017C010C
:10440000C01AD10AE20AF30A8091E902811162C25C
:104410008090DF029090E002A090E102B090E20272
:104420008C189D08AE08BF08181419041A041B0440
:104430000CF0B5C06BE272E0CE0182960E94270FAD
:10444000C501B40120E63AEE40E050E00E94862A21
:10445000BA01A901CE0182960E94A80E6FEE71E00A
:10446000CE0182960E94F60EC501B40128EE33E01B
:1044700040E050E00E94862ACA01B9012CE330E0F6
:1044800040E050E00E94862A4B015C019AE08916C8
:104490009104A104B1041CF06BE272E002C061EE71
:1044A00071E0CE0182960E94F60EB501A401CE0104
:1044B00082960E94A80E0AA11BA16BE272E0CE01B7
:1044C00001960E94270F6091B6047091B704CE0147
:1044D00001960E94F60E61EF71E0CE0101960E94F6
:1044E000F60EB801CE0101960E94F60E66EF71E05D
:1044F000CE0101960E94F60E89819A810E94AF0832
:104500000E941E1389819A810E947A2C8091E30275
:104510009091E402A091E502B091E6028C0D9D1D00
:10452000AE1DBF1D8093E3029093E402A093E502C9
:10453000B093E6028091DF029091E002A091E10247
:10454000B091E2029C01AD012C193D094E095F09B1
:1045500069017A012093DF023093E0024093E10287
:104560005093E2020E9458174B015C01C701B6014B
:1045700028EE33E040E050E00E94642A860E971E49
:10458000A81EB91E8092EA029092EB02A092EC0261
:10459000B092ED028AA19BA10E947A2C1FC080E4F8
:1045A00095E00E94B70A1092EE0281E00E94141B6F
:1045B00080E00E94741B10921F0110922001109243
:1045C00021011092220110922301109224011092D5
:1045D00025011092260183E0809327010E94641731
:1045E000982EC090CA05D090CB05E090CC05F090F5
:1045F000CD0520912A0430912B0440912C04509138
:104600002D04C701B6010E94CF28811105C08091F9
:104610002E04981609F43EC1C0922A04D0922B04AD
:10462000E0922C04F0922D0420E030E0A901C701B3
:10463000B6010E94CF282601370187FF04C077FA10
:10464000709477F8709420E030E040E251E4C301C8
:10465000B2010E94352B0E94A72BCB016AE070E0CB
:104660000E94502A182FB82EC301B2010E94A72B16
:10467000CB016AE070E00E94502A082F20E030E071
:1046800040E251E4C301B2010E9435290E94A72BE8
:10469000CB016AE070E00E94502A282E0E948E13FF
:1046A000992029F048EF642E41E0742E04C033E0D5
:1046B000632E32E0732E20E030E0A901C701B6017D
:1046C0000E94CF2887FF03C03DE238A702C040E226
:1046D00048A720E030E0A901C701B6010E94CF2819
:1046E00087FF02C094E101C09CE051E0B51202C016
:1046F00085E001C080E0892E880EBB2021F020E3F8
:10470000B22EB10E02C090E2B92E20E030E0A90135
:10471000C701B6010E94CF2887FF02C09DE201C0F9
:1047200095E2013011F485E001C080E0A92EA80EC9
:1047300020E030E0A901C701B6010E94CF2887FF21
:1047400003C086E489A702C09EE399A720E030E079
:10475000A901C701B6010E94CF2887FF02C09FE4CC
:1047600001C097E4E1E02E1202C085E001C080E0C4
:10477000E92EE80E1FE380E3F82EF00E312C412CD9
:10478000512C81E00E948F1402E120E840E060E0BB
:104790008AEA93E00E94D40F811142C080E00E9417
:1047A0008F148BEE92E00E94D8132CE43DE03093FE
:1047B000AD032093AC03C3010E94961390922E0484
:1047C00081E00E948F148CEA90E00E94D81310922E
:1047D00028041093290488A50E94D31380922804EA
:1047E000109329048B2D0E94D313A09228041093B8
:1047F00029048F2D0E94D31339A5309328041093D8
:1048000029048EE20E94D313E09228041093290415
:10481000A201910119A26E0181E2C80ED11C0EC045
:10482000D12C00E020E84D2D60E08AEA93E00E9460
:104830006510D39492E1D912F4CFB0CFCA01B90177
:104840002AE030E040E050E00E94642A605DF6011A
:1048500062936F01211531054105510579F7BF01BB
:1048600086EA93E00E94670F88E690E00E94D813E2
:10487000F8E6F09328041093290480EB0E94D313E8
:1048800062E172E086EA93E00E94670F0E9467137C
:10489000811177CF0E94EC0BDFCA81E08093E9029F
:1048A00080E00E94F31B63E080E394E00E94061B1B
:1048B00003CD62E080E394E00E94061B1092E902BF
:1048C0001092DE0275CDCD28CE28CF2809F086CEF5
:1048D0000E945817C12CD12C76019ACDCD28CE2814
:1048E000CF2809F07BCE0E945817C090E302D090E9
:1048F000E402E090E502F090E6029B01AC012C1985
:104900003D094E095F0969017A011111E3CF7CCDA0
:104910001F93CF93DF93109200031092FF0288EE53
:1049200093E0A0E0B0E08093010390930203A09392
:104930000303B093040322EA31E03093FE02209394
:10494000FD0210920C0310920B0380930D039093C1
:104950000E03A0930F03B093100384EB91E09093A8
:104960000A038093090385EC90E0909316038093EB
:10497000150384EC90E0909318038093170380EC68
:1049800090E090931A038093190381EC90E0909348
:104990001C0380931B0382EC90E090931E03809392
:1049A0001D0386EC90E09093200380931F031092E8
:1049B000220310922303109224031092250362E035
:1049C0008EE495E00E94492863E08CE595E00E9422
:1049D00049288EE495E090937105809370051092BC
:1049E0006E0510926F0510926A0519E010936B0521
:1049F00081E080936D0510927D0510927C052CE579
:104A000035E030938505209384051092820510923D
:104A1000830510927E0510937F0580938105109287
:104A20009105109290051092CE051092CF0510922C
:104A3000D0051092D1051092D2051092D305109294
:104A4000D4051092D5051092D60510926C051092DF
:104A500080050E945817DC01CB0182519D4FAF4F5A
:104A6000BF4F8093CF059093D005A093D105B0930D
:104A7000D2051092D3051092D4051092D50510924C
:104A8000D60510924005109241052CE232E0309399
:104A90004305209342051092470510924605109257
:104AA0004B0510924A0510924D0510924C0510923C
:104AB00049051092480582E0809332051092330533
:104AC00041E352E050933505409334051092390587
:104AD0001092380510923D0510923C0510923F054A
:104AE00010923E0510923B0510923A051092240553
:104AF0001093250569E372E07093270560932605FE
:104B0000309329052093280510922B0510922A0531
:104B100010922F0510922E0510923105109230053B
:104B200010922D0510922C05109216057AE07093C4
:104B30001705E1E4F2E0F0931905E09318053093CE
:104B40001B0520931A0510921D0510921C0510924A
:104B50002105109220051092230510922205109233
:104B60001F0510921E05109208056DE0609309055F
:104B7000E9E4F2E0F0930B05E0930A0530930D05AC
:104B800020930C0510920F0510920E05109213053C
:104B9000109212051092150510921405109211052D
:104BA000109210051092FA049EE09093FB04E3E546
:104BB000F2E0F093FD04E093FC043093FF042093B3
:104BC000FE04109201051092000510920505109246
:104BD0000405109207051092060510920305109225
:104BE00002051092EC049FE09093ED04EAE5F2E0F8
:104BF000F093EF04E093EE043093F1042093F0047B
:104C00001092F3041092F2041092F7041092F6043A
:104C10001092F9041092F8041092F5041092F40422
:104C20001092DE0493E09093DF0424E632E03093A8
:104C3000E1042093E0041092E5041092E404109241
:104C4000E9041092E8041092EB041092EA04109226
:104C5000E7041092E6041092D00424E12093D104DA
:104C600027E632E03093D3042093D2041092D70485
:104C70001092D6041092DB041092DA041092DD0434
:104C80001092DC041092D9041092D80410925706A6
:104C900022E12093580623E732E030935A0620930E
:104CA000590610925E0610925D06109262061092EE
:104CB00061061092640610926306109260061092CC
:104CC0005F068093C20425E02093C3042DE732E001
:104CD0003093C5042093C4041092C9041092C804F0
:104CE0001092CD041092CC041092CF041092CE04F6
:104CF0001092CB041092CA048093B40426E020934F
:104D0000B50426E832E03093B7042093B60410923D
:104D1000BB041092BA041092BF041092BE04109209
:104D2000C1041092C0041092BD041092BC04809380
:104D3000A60427E02093A70421E932E03093A904D8
:104D40002093A8041092AD041092AC041092B10408
:104D50001092B0041092B3041092B2041092AF04F7
:104D60001092AE048093980428E0209399042BE9D4
:104D700032E030939B0420939A0410929F04109287
:104D80009E041092A3041092A2041092A504109203
:104D9000A4041092A1041092A00480938A0410939A
:104DA0008B0424EA32E030938D0420938C0410921B
:104DB0009104109290041092950410929404109211
:104DC0009704109296041092930410929204809388
:104DD0007C0470937D042DEA32E030937F042093AD
:104DE0007E04109283041092820410928704109221
:104DF00086041092890410928804109285041092FF
:104E0000840480936E042BE020936F0425EB32E042
:104E100030937104209370041092750410927404FE
:104E2000109279041092780410927B0410927A0404
:104E30001092770410927604809360042CE0209303
:104E400061042EEB32E030936304209362041092ED
:104E500067041092660410926B0410926A04109218
:104E60006D0410926C04109269041092680480938F
:104E700052046093530425EC32E0309355042093A0
:104E80005404109259041092580410925D04109228
:104E90005C0410925F0410925E0410925B04109206
:104EA0005A0480934404909345042BEC32E03093F1
:104EB00047042093460450934904409348041092B9
:104EC0004B0410924A0410924F0410924E04109218
:104ED00051041092500410924D0410924C0480938F
:104EE000360484E08093370483ED92E09093390494
:104EF0008093380450933B0440933A0410923D044D
:104F000010923C0410924104109240041092430409
:104F10001092420410923F0410923E0410922F040B
:104F20001092300410923104109232041092330423
:104F300010923404109235041092A9031092A80321
:104F40008CE49DE09093270480932604109228041B
:104F5000109229041092C30386EC91E09093A7036A
:104F60008093A6031092AB031092AA031092BF0382
:104F70001092C2031092B6031092B7031092B803B6
:104F80001092B9038FEF8093C0038093C503E9ECBF
:104F9000F3E0CFEF819393E0EF3DF907D1F78FE78F
:104FA0009CE09093AF038093AE038CE59EE09093DA
:104FB000B1038093B00381E495E09093B3038093B1
:104FC000B20381E296E09093B5038093B40320E0AE
:104FD00030E040E069E08AEA93E00E947F0C1092A2
:104FE000F7031092F60389EA9DE09093E003809323
:104FF000DF0387ED95E09093E4038093E30381E082
:105000008093E5031092E6031092030410922304A8
:1050100080932404809325048EEC91E09093E20326
:105020008093E1038AEA93E00E94630D1092F203F9
:105030001092F403C093F303C093F503E091E103EE
:10504000F091E2030280F381E02D8AEA93E0099572
:1050500085E09EE09093F9038093F8031092060494
:10506000C093D403C093D503C093D60380E090E0EF
:10507000A0E0B3EC80932A0490932B04A0932C041B
:10508000B0932D0410922E04DF91CF911F910895BB
:1050900008951F93CF93DF93EC01162F60E0812FCB
:1050A0000E942416612F70E0FB01E15FF74FE4914D
:1050B000E883FB01E550F84FE491F0E0EE0FFF1FAD
:1050C000EF50F84F859194919A8389831B861D86B2
:1050D0001C86FE013B9623961292EC17FD07E1F722
:1050E000DF91CF911F910895BB272A3051F4992366
:1050F00042F4BDE290958095709561957F4F8F4FFA
:105100009F4F0C948428BB27FA01A62F62177105C4
:1051100081059105330B30FB66F0AA27660F771FD8
:10512000881F991FAA1FA21710F0A21B6395385061
:10513000A9F7A05DAA3308F0A95DA19336F7B111D4
:10514000B1931082CA010C94BF28BB27FB015527DD
:10515000AA27880F991FAA1FA41710F0A41B8395D4
:105160005051B9F7A05DAA3308F0A95DA19300974B
:1051700079F7B111B1931192CB010C94BF28DC01E6
:10518000FC01672F71917723E1F7329704C07C917E
:105190006D9370836291AE17BF07C8F308950E94A4
:1051A000112908F481E00895E89409C097FB3EF4C2
:1051B00090958095709561957F4F8F4F9F4F992364
:1051C000A9F0F92F96E9BB279395F69587957795E2
:1051D0006795B795F111F8CFFAF4BB0F11F460FFA2
:1051E0001BC06F5F7F4F8F4F9F4F16C0882311F0FA
:1051F00096E911C0772321F09EE8872F762F05C00E
:10520000662371F096E8862F70E060E02AF09A95A8
:10521000660F771F881FDAF7880F9695879597F99D
:105220000895990F0008550FAA0BE0E8FEEF161637
:105230001706E807F907C0F012161306E407F5078A
:1052400098F0621B730B840B950B39F40A2661F0FE
:10525000232B242B252B21F408950A2609F4A140A1
:10526000A6958FEF811D811D08950E9448290C94F9
:10527000B9290E94AB2938F00E94B22920F0952369
:1052800011F00C94A2290C94A82911240C94ED2956
:105290000E94CA2970F3959FC1F3950F50E0551FE6
:1052A000629FF001729FBB27F00DB11D639FAA277B
:1052B000F00DB11DAA1F649F6627B00DA11D661FCA
:1052C000829F2227B00DA11D621F739FB00DA11DEB
:1052D000621F839FA00D611D221F749F3327A00DA5
:1052E000611D231F849F600D211D822F762F6A2F41
:1052F00011249F5750409AF0F1F088234AF0EE0FA6
:10530000FF1FBB1F661F771F881F91505040A9F7D2
:105310009E3F510580F00C94A2290C94ED295F3F2B
:10532000E4F3983ED4F3869577956795B795F7950E
:10533000E7959F5FC1F7FE2B880F911D9695879586
:1053400097F9089597F99F6780E870E060E0089505
:105350009FEF80EC089500240A941616170618068D
:105360000906089500240A94121613061406050669
:105370000895092E0394000C11F4882352F0BB0FFA
:1053800040F4BF2B11F460FF04C06F5F7F4F8F4F5D
:105390009F4F089557FD9058440F551F59F05F3F98
:1053A00071F04795880F97FB991F61F09F3F79F047
:1053B00087950895121613061406551FF2CF4695C9
:1053C000F1DF08C0161617061806991FF1CF86954B
:1053D0007105610508940895E894BB27662777272F
:1053E000CB0197F908950E94352AA59F900DB49F8F
:1053F000900DA49F800D911D112408952F923F922E
:105400004F925F926F927F928F929F92AF92BF92D4
:10541000CF92DF92EF92FF920F931F93CF93DF9380
:10542000CDB7DEB7CA1BDB0B0FB6F894DEBF0FBEDD
:10543000CDBF09942A88398848885F846E847D842A
:105440008C849B84AA84B984C884DF80EE80FD802C
:105450000C811B81AA81B981CE0FD11D0FB6F894A2
:10546000DEBF0FBECDBFED010895A29FB001B39F77
:10547000C001A39F700D811D1124911DB29F700D5D
:10548000811D1124911D0895991B79E004C0991F75
:10549000961708F0961B881F7A95C9F7809508958E
:1054A00097FB072E16F4009407D077FD09D00E94D1
:1054B000AE2A07FC05D03EF4909581959F4F089544
:1054C000709561957F4F0895A1E21A2EAA1BBB1B10
:1054D000FD010DC0AA1FBB1FEE1FFF1FA217B307C0
:1054E000E407F50720F0A21BB30BE40BF50B661FD6
:1054F000771F881F991F1A9469F76095709580959A
:1055000090959B01AC01BD01CF010895052E97FB3D
:105510001EF400940E949D2A57FD07D00E94642A21
:1055200007FC03D04EF40C949D2A5095409530957D
:1055300021953F4F4F4F5F4F0895909580957095FF
:1055400061957F4F8F4F9F4F08952A153B054C055E
:105550005D056E057F05800791070895AA1BBB1B9B
:1055600051E107C0AA1FBB1FA617B70710F0A61B63
:10557000B70B881F991F5A95A9F780959095BC0184
:10558000CD010895EE0FFF1F0590F491E02D0994D1
:105590005058BB27AA270E94E02A0C94B9290E94E0
:1055A000AB2938F00E94B22920F039F49F3F19F45A
:1055B00026F40C94A8290EF4E095E7FB0C94A2299C
:1055C000E92F0E94CA2958F3BA17620773078407A4
:1055D000950720F079F4A6F50C94EC290EF4E095EB
:1055E0000B2EBA2FA02D0B01B90190010C01CA019D
:1055F000A0011124FF27591B99F0593F50F4503E48
:1056000068F11A16F040A22F232F342F4427585F39
:10561000F3CF469537952795A795F0405395C9F751
:105620007EF41F16BA0B620B730B840BBAF0915009
:10563000A1F0FF0FBB1F661F771F881FC2F70EC0A8
:10564000BA0F621F731F841F48F48795779567957B
:10565000B795F7959E3F08F0B0CF9395880F08F067
:105660009927EE0F9795879508950E94492B0C94E2
:10567000B9290E94B22958F00E94AB2940F029F4C0
:105680005F3F29F00C94A22951110C94ED290C9440
:10569000A8290E94CA2968F39923B1F3552391F3ED
:1056A000951B550BBB27AA2762177307840738F091
:1056B0009F5F5F4F220F331F441FAA1FA9F335D0EE
:1056C0000E2E3AF0E0E832D091505040E695001CA2
:1056D000CAF72BD0FE2F29D0660F771F881FBB1F5C
:1056E000261737074807AB07B0E809F0BB0B802D3A
:1056F000BF01FF2793585F4F3AF09E3F510578F066
:105700000C94A2290C94ED295F3FE4F3983ED4F366
:10571000869577956795B795F7959F5FC9F7880F39
:10572000911D9695879597F90895E1E0660F771F8B
:10573000881FBB1F621773078407BA0720F0621B1C
:10574000730B840BBA0BEE1F88F7E09508950E9447
:10575000AE2B6894B1110C94ED2908950E94D229C2
:1057600088F09F5798F0B92F9927B751B0F0E1F022
:10577000660F771F881F991F1AF0BA95C9F714C0D2
:10578000B13091F00E94EC29B1E008950C94EC291D
:10579000672F782F8827B85F39F0B93FCCF386950B
:1057A00077956795B395D9F73EF490958095709568
:1057B00061957F4F8F4F9F4F08950E94112908F4E4
:1057C0008FEF08950F931F93CF93DF93823091054E
:1057D00010F482E090E0E0912007F091210720E0B2
:1057E00030E0A0E0B0E0309719F1408151810281B2
:1057F000138148175907C8F08417950769F4109763
:1058000031F012960C93129713961C9327C00093B5
:1058100020071093210722C02115310519F04217E6
:10582000530718F49A01BD01EF01DF01F801DBCF46
:1058300021153105F9F0281B390B2430310580F48E
:105840008A819B816115710521F0FB01938382831D
:1058500004C09093210780932007FE01329644C034
:10586000FE01E20FF31F8193919322503109398396
:1058700028833AC02091220730912307232B41F43B
:1058800020912F013091300130932307209322077C
:1058900020912D0130912E012115310541F42DB7B4
:1058A0003EB74091310150913201241B350BE091FC
:1058B0002207F0912307E217F307A0F42E1B3F0BFA
:1058C0002817390778F0AC014E5F5F4F2417350772
:1058D00048F04E0F5F1F5093230740932207819398
:1058E000919302C0E0E0F0E0CF01DF91CF911F91F2
:1058F0000F910895CF93DF93009709F481C0FC01C5
:10590000329713821282A0912007B091210710973D
:1059100081F420813181820F931F209122073091E1
:1059200023072817390751F5F0932307E09322073F
:1059300067C0ED0120E030E0CE17DF0740F44A8178
:105940005B819E0141155105F1F0EA01F5CFD3834A
:10595000C28340815181840F951FC817D90759F41C
:1059600088819981840F951F0296918380838A8113
:105970009B81938382832115310529F4F0932107BC
:10598000E09320073DC0E901FB83EA8349915991E7
:10599000C40FD51FEC17FD0761F480819181840F3E
:1059A000951F0296E90199838883828193819B8365
:1059B0008A83E0E0F0E012968D919C911397009716
:1059C00019F0FD01DC01F7CF8D919C9111979D019C
:1059D0002E5F3F4F820F931F2091220730912307A4
:1059E0002817390769F4309729F41092210710928B
:1059F000200702C013821282B0932307A0932207CC
:105A0000DF91CF910895A0E0B0E0E9E0FDE20C94D1
:105A1000022AEC01009721F4CB010E94E22BB4C0D2
:105A2000FC01E60FF71F9C0122503109E217F30732
:105A300008F4A8C0D9010D911C91119706171707FA
:105A4000B0F00530110508F49BC0C8010497861713
:105A5000970708F495C002501109061B170B019314
:105A600011936D937C93CF010E947A2C89C05B01C6
:105A7000A01AB10A4C01800E911EA0912007B0918E
:105A80002107612C712CE12CF12C109709F446C0F0
:105A90008D919C911197A815B905B1F56C0142E063
:105AA000C40ED11CCA14DB0478F14C018A189B087F
:105AB000640142E0C40ED11C1296BC90129713965A
:105AC000AC91B5E0CB16D10440F0B282A3839182B1
:105AD0008082D9016D937C9309C00E5F1F4F800FA8
